:020000040000FA
:1000000000008A150A12692AF200030E8301F1002A
:100010000A088A01F000040883120317970083126C
:1000200003130B11D830810083160313ED018312E3
:100030000313871F1E2883160313ED0A8316031369
:100040006D08EE0001306E06ED00EE006E0C031838
:100050002C28831203138713031C312883120313E4
:1000600087178A110A12DD268A110A128A150A12C6
:1000700000208A110A128A110A12B1248A110A1266
:100080008A110A1289228A110A1283120317170889
:1000900083120313840070088A008301710E8300A9
:1000A000F20E720E090083120313D6007F08D500EA
:1000B0007E08D40083120317930183120317900163
:1000C000910100308A110A12C7268A110A1283127E
:1000D0000313D7000A3A031DB62801305407D7008E
:1000E000D801D80D5508D807D901D90D5608D90718
:1000F0005708FE005808FF0059088A110A12812784
:100100008A110A1283120313DA000A30FF005A0818
:100110008A150A1236238A110A12FF0000308A114A
:100120000A12AD268A110A12831203135708FE0021
:100130005808FF0059088A110A1281278A110A12E9
:1001400083120313DA000A30FF005A088A150A12D4
:1001500005238A110A1283120313D700FF0001300E
:100160008A110A12AD268A110A12C6280A30FF0027
:1001700000308A110A12AD268A110A120A30FF00D5
:1001800001308A110A12AD268A110A120230831236
:100190000313D4070318D50A0319D60A5408FE001E
:1001A0005508FF0056088A110A1281278A110A127F
:1001B00083120313D7000A30FF0057088A150A126A
:1001C00036238A110A1283120313DA00FF00023069
:1001D0008A110A12AD268A110A12831203135408D7
:1001E000FE005508FF0056088A110A1281278A115D
:1001F0000A1283120313D7000A30FF0057088A152A
:100200000A1205238A110A1283120313D400FF0075
:1002100003308A110A12AD268A110A1200308A119F
:100220000A12E4258A110A12080083120313CF0070
:100230007F08CE007E08CD0083120317930183123E
:1002400003179001910102308A110A12C7268A1100
:100250000A1283120313D0000A3A031D78290230D0
:100260004D07D000D101D10D4E08D107D201D20DDA
:100270004F08D2075008FE005108FF0052088A11AB
:100280000A1281278A110A1283120313D3000A303B
:10029000FF0053088A150A1236238A110A12FF003A
:1002A00002308A110A12AD268A110A128312031330
:1002B0005008FE005108FF0052088A110A128127D7
:1002C0008A110A1283120313D3000A30FF00530865
:1002D0008A150A1205238A110A1283120313D00009
:1002E000FF0003308A110A12AD268A110A128829EA
:1002F0000A30FF0002308A110A12AD268A110A1252
:100300000A30FF0003308A110A12AD268A110A1240
:1003100083120313CD0A0319CE0A0319CF0A4D081D
:10032000FE004E08FF004F088A110A1281278A1129
:100330000A1283120313D0000A30FF0050088A15F6
:100340000A1236238A110A1283120313D300FF0004
:1003500000308A110A12AD268A110A128312031381
:100360004D08FE004E08FF004F088A110A1281272F
:100370008A110A1283120313D0000A30FF005008BA
:100380008A150A1205238A110A1283120313CD005B
:10039000FF0001308A110A12AD268A110A120030BC
:1003A0008A110A12E4258A110A1208008312031323
:1003B000C8007F08C7007E08C60001304607C90094
:1003C000CA01CA0D4708CA07CB01CB0D4808CB07A5
:1003D0004908FE004A08FF004B088A110A128127CB
:1003E0008A110A1283120313CC000A30FF004C0852
:1003F0008A150A1236238A110A12FF0000308A1168
:100400000A12AD268A110A12831203134908FE004C
:100410004A08FF004B088A110A1281278A110A1222
:1004200083120313CC000A30FF004C088A150A120D
:1004300005238A110A1283120313C900FF00013039
:100440008A110A12AD268A110A120230831203138E
:10045000C6070318C70A0319C80A4608FE0047085A
:10046000FF0048088A110A1281278A110A12831292
:100470000313C9000A30FF0049088A150A123623FF
:100480008A110A1283120313CC00FF0002308A1172
:100490000A12AD268A110A12831203134608FE00BF
:1004A0004708FF0048088A110A1281278A110A1298
:1004B00083120313C9000A30FF0049088A150A1283
:1004C00005238A110A1283120313C600FF000330AA
:1004D0008A110A12AD268A110A126F2208008312AD
:1004E00003171308031D7F2A01308A110A12E4251D
:1004F0008A110A120130831203179300882A0030F0
:100500008A110A12E4258A110A1283120317930131
:100510000800053083120313DB070318DC0A5B08AD
:10052000143A031D962A5C08003A031D042B83121B
:100530000313DB01DC01003083120313C4005D30C0
:10054000C300C5014308FE004408FF0000308A11C3
:100550000A1262248A110A121430831203179007B8
:100560000318910A1008E83A031DB92A1108033A42
:10057000031D042B83120317900191018A110A12A3
:10058000F1238A110A1283120313C30003304302BA
:100590000318042B0230831203138A00D83083120D
:1005A00003134307031CD72A831203138A0A82000A
:1005B000DB2AE92AF72A003083120313C4005D30D6
:1005C000C300C5014308FE004408FF000030D621E7
:1005D000042B003083120313C4005D30C300C50137
:1005E0004308FE004408FF0000301521042B0030B2
:1005F00083120313C4005D30C300C5014308FE002D
:100600004408FF0000305320080000308A110A120D
:1006100017278A110A1201308A110A1217278A1124
:100620000A1202308A110A1217278A110A1203309D
:100630008A110A1217278A110A120030FF000030AF
:100640008A110A12AD268A110A120030FF00013009
:100650008A110A12AD268A110A120030FF000230F8
:100660008A110A12AD268A110A120030FF000330E7
:100670008A110A12AD268A110A1208008316031382
:10068000690883120313BE00BE0A3E0883160313D3
:10069000E900831203133E083C3A031D762B8316B0
:1006A0000313E9016A0883120313BE00BE0A3E0861
:1006B00083160313EA00831203133E083C3A031D1A
:1006C000762B83160313EA016B0883120313BE0013
:1006D000BE0A3E0883160313EB00831203133E0881
:1006E000183A031D762B83160313EB0108008312BF
:1006F0000313B4007F08B3007E08B2007D08B70082
:100700007C08B6007B08B500FE003608FF003708FD
:100710008A110A1281278A110A1283120313B80060
:10072000FD003208FE003308FF0034088A110A1267
:1007300075278A110A120130831203133207B80099
:10074000B901B90D3308B907BA01BA0D3408BA07AF
:1007500001303507BB00BC01BC0D3608BC07BD012C
:10076000BD0D3708BD073B08FE003C08FF003D08F3
:100770008A110A1281278A110A12FD0083120313BB
:100780003808FE003908FF003A088A110A12752756
:100790008A110A12023083120313B2070318B30A34
:1007A0000319B40A0230B5070318B60A0319B70AC9
:1007B0003508FE003608FF0037088A110A12812723
:1007C0008A110A1283120313B800FD003208FE00DA
:1007D0003308FF0034088A110A1275278A110A1299
:1007E0000800831203171608080083120313A900D8
:1007F0007F08A8007E08A7007D08AC007C08AB003D
:100800007B08AA000130AD002707AE00AF01AF0D95
:100810002808AF07B001B00D2908B0072E08FE0068
:100820002F08FF0030088A110A1281278A110A1244
:1008300083120313B10001302A07AE00AF01AF0DE0
:100840002B08AF07B001B00D2C08B0072E08FE0032
:100850002F08FF0030088A110A1281278A110A1214
:10086000831203133106031D5E2C0230A707031801
:10087000A80A0319A90A2708FE002808FF0029086A
:100880008A110A1281278A110A1283120313AE00F9
:100890000230AA070318AB0A0319AC0A2A08FE00A3
:1008A0002B08FF002C088A110A1281278A110A12CC
:1008B00083120313A7002E060319AD01831203133D
:1008C0002D08080083120313A3007F08A2007E08EE
:1008D000A10083160313690883120313A400FD000B
:1008E0002108FE002208FF0023088A110A1275273A
:1008F0008A110A120130831203132107A400A501F3
:10090000A50D2208A507A601A60D2308A607831694
:1009100003136A08FD00831203132408FE00250850
:10092000FF0026088A110A1275278A110A1202305E
:1009300083120313A1070318A20A0319A30A83163B
:1009400003136B0883120313A400FD002108FE00AB
:100950002208FF0023088A110A1275278A110A1239
:100960000800053083120313BF070318C00A3F08AD
:10097000143A031DBE2C4008003A031DAB2D831210
:100980000313BF01C00103308312031716020318BB
:10099000AB2D0430831203138A00D7308312031760
:1009A0001607031CD62C831203138A0A8200DA2C42
:1009B000012D572D02308A150A12B8218A110A1208
:1009C00083120313A000013A031DEF2C01308312A0
:1009D0000317960083120313C101C201AB2D14301B
:1009E00083120313C1070318C20A4108E83A031D22
:1009F000AB2D4208033A031DAB2DC101C2013E23BA
:100A0000AB2D02308A150A12B8218A110A128312FC
:100A10000313A000013A031D162D023083120317A1
:100A2000960083120313C101C201AB2D00308A1559
:100A30000A12B8218A110A1283120313A000013A84
:100A4000031D372D831603136B0883120313A000B5
:100A5000A00A200883160313EB0083120313200857
:100A6000183A031DAB2D83160313EB01AB2D013098
:100A70008A150A12B8218A110A1283120313A000E0
:100A8000013A031DAB2D831603136B03831203136B
:100A9000A00083160313EB00831203132008FF3A10
:100AA000031DAB2D173083160313EB00AB2D023063
:100AB0008A150A12B8218A110A1283120313A000A0
:100AC000013A031D6B2D8312031796018312031342
:100AD000C101C201AB2D00308A150A12B8218A115A
:100AE0000A1283120313A000013A031D8C2D8316F2
:100AF00003136A0883120313A000A00A20088316B8
:100B00000313EA008312031320083C3A031DAB2DA4
:100B100083160313EA01AB2D01308A150A12B8219E
:100B20008A110A1283120313A000013A031DAB2D90
:100B3000831603136A0383120313A000831603139F
:100B4000EA00831203132008FF3A031DAB2D3B304C
:100B500083160313EA00080083160313E901EA0170
:100B6000EB01080083160313CB007F08CC00003094
:100B7000FF000030E8250030FF000130E82500309C
:100B8000FF000230E8250030FF000330E82583161F
:100B900003134C08D03ECC0000300318013ECD00BA
:100BA0004C088312031384008313831603134D1818
:100BB000831783120313000888000130FF00831697
:100BC00003134B08E825080083120317950008005B
:100BD00083160313C7007F08C800043047020318B8
:100BE0005D2E0530831203138A00FF308316031332
:100BF0004707031CFE2D831203138A0A8200032E6B
:100C0000132E262E4D2E831203130608831603136C
:100C1000C7004712480EF039C900CA0047048312C2
:100C2000031386005D2E8312031306088316031335
:100C3000C700C712480EF039C9000310C90D490892
:100C4000CA0047048312031386005D2E8312031328
:100C5000060883160313C7004713480EF039C9006E
:100C60000310C90D0310C90D4908CA0047048312B7
:100C700003138600080883160313C700C7138312E3
:100C80000317150C83160313C901C90C4908CA00C0
:100C900047048312031388005D2E83120313060892
:100CA00083160313C700C713480CC901C90C4908B0
:100CB000C800470483120313860008008316031339
:100CC000C500C601043045020318A92E0630831260
:100CD00003138A007430831603134507031C732E15
:100CE000831203138A0A8200782E832E902E9F2E61
:100CF000103083120313060583160313C500450E37
:100D00000F39C600A92E203083120313060583165F
:100D10000313C500450E0F39C6000310C60CA92EDB
:100D2000403083120313060583160313C500450ED6
:100D30000F39C6000310C60C0310C60CA92E803054
:100D400083120313060583160313C500450DC60160
:100D5000C60D831603134608080083160313C2004A
:100D60007F08C30042086C3EC20000300318013EF9
:100D7000C4004208831203138400831383160313F1
:100D80004418831743088312031380000800831656
:100D90000313C0006C3EC00000300318013EC100C8
:100DA000400883120313840083138316031341182E
:100DB00083178312031300080800053083160313FA
:100DC000CE070318CF0A4E08053A031DEA2E4F0836
:100DD000003A031D162F83160313CE01CF01831291
:100DE000031714086C3E83160313BE00003003186B
:100DF000013EBF003E088312031384008313831651
:100E000003133F188317831203130008FF00831294
:100E100003171408B225831203171408033A031D9D
:100E2000132F9401162F83120317940A08008316B8
:100E30000313BC008316031388010A30FF008316D6
:100E400003133C08B2250430831603133C02031835
:100E50006A2F0730831203138A0037308316031377
:100E60003C07031C362F831203138A0A82003B2F90
:100E7000472F532F5F2F8316031306088316031380
:100E8000BD00EF303D058316031386006A2F8316DD
:100E90000313060883160313BD00DF303D058316D8
:100EA000031386006A2F83160313060883160313A1
:100EB000BD00BF303D058316031386006A2F8316DD
:100EC0000313060883160313BD007F303D05831608
:100ED000031386000030FF00831603133C088A11B9
:100EE0000A12E8258A110A120800003A0319792F1C
:100EF00008007E08840083137F1883177D08800014
:100F00000800003A0319882F803A03198F2F003404
:100F10007E08840083137F188317000808007F0869
:100F20008A007E0882000800003A03199C2F803A4C
:100F30000319A62FFF0100347E08840083137F1855
:100F400083170008FF00840A000808008A110A12AB
:100F50008F27FD00FE0FFF03FF0A8A110A128F2759
:100F6000FC007D08FF007C0808000A340034D934F6
:100F70000B341234013401340034DA340B341334BA
:100F8000013401340034FE340734103401340234A7
:100F90000034F3340734D03400340B340034DB3401
:100FA0000B341434013401340034D2340B346C3437
:100FB000003404340034DC340B341534013401348F
:100FC0000034D6340B34E934003403340034DD34D7
:100FD0000B341634013401340034DE340B3418344D
:100FE0000134013400343F3406345B344F3466340A
:100FF0006D347D3407347F346F3400340034003472
:10100000053083160313BA070318BB0A3A08143ACB
:10101000031D0D283B08003A031DB729831603134F
:10102000BA01BB0183160313A9010330FF00831625
:10103000031329088A150A12B1238A150A12831686
:101040000313AA00AB012A08B13EAC000030AD008A
:10105000003003182B0FAD072A08B13EAA002B0859
:1010600003182B0F003EAB00AA0A0319AB0A2A088B
:101070008312031384008313831603132B1883171F
:1010800083120313000883160313AE002C08831287
:10109000031384008313831603132D1883172E085C
:1010A000831203138000831603132908031D6E287F
:1010B000013083120313060583160313AC00AD0041
:1010C0002A088312031384008313831603132B1837
:1010D00083172D08831203138000AB288316031394
:1010E0002908013A031D8C280230831203130605D8
:1010F00083160313AC0003102C0CAD002A088312D6
:10110000031384008313831603132B1883172D08EE
:10111000831203138000AB28831603132908023AB5
:10112000031DAB2804308312031306058316031333
:10113000AC0003102C0CAD000310AD0C2A08831278
:10114000031384008313831603132B1883172D08AE
:101150008312031380000330FF0083160313290852
:101160008A150A12B1238A150A1283160313AA00DC
:10117000AB012A08B13EAA00003003182B0F003E35
:10118000AB0002302A07AC00AD01AD0D2B08AD0756
:101190002C088312031384008313831603132D1862
:1011A000831783120313000883160313AE00043061
:1011B0002E020318B0290830831203138A00E93085
:1011C000831603132E07031CE828831203138A0ACD
:1011D0008200ED28282951298C29831603132A0817
:1011E0008312031384008313831603132B188317AE
:1011F00083120313000883160313AE002E08031D89
:10120000B02901302A07AE00AF01AF0D2B08AF07A0
:101210002E088312031384008313831603132F18DD
:10122000831783120313000883160313B0003008DA
:10123000031DB0292C088312031384008313831623
:1012400003132D1883170130831203138000B02974
:101250000130831603132A07AE00AF01AF0D2B0830
:10126000AF072E088312031384008313831603131E
:101270002F18831783120313000883160313B0007B
:101280003008031DB0292C08831203138400831334
:10129000831603132D188317023083120313800063
:1012A000B029831603132A088312031384008313BF
:1012B000831603132B188317831203130008831656
:1012C0000313AE00013A031DB02901302A07AE0016
:1012D000AF01AF0D2B08AF072E0883120313840054
:1012E0008313831603132F18831783120313000825
:1012F00083160313B000013A031DB0292C08831292
:10130000031384008313831603132D1883170330EC
:10131000831203138000B02983160313AA0A03194A
:10132000AB0A2A0883120313840083138316031362
:101330002B18831783120313000883160313AE00C0
:10134000013A031DB0292C08831203138400831370
:10135000831603132D1883170030831203138000A4
:1013600083160313A90A03302902031C1528080059
:1013700083160313A5000330FF0025088A150A12FF
:10138000B1238A150A1283160313A600A7012608A3
:10139000B13EA5000030A80000300318270FA807B1
:1013A0000230A5070318A80A250883120313840036
:1013B000831383160313281883178312031300085B
:1013C00083160313A600080083160313060883166A
:1013D0000313A0002010013020048316031386009D
:1013E000060883160313A000A01002302004831601
:1013F00003138600060883160313A000201104308F
:10140000200483160313860083160313A001033000
:10141000FF008316031320088A150A12B1238A15C8
:101420000A1283160313A100A2012108B13EA300F2
:101430000030A40000300318220FA40723088312F1
:1014400003138400831383160313241883170130B6
:10145000831203138000831603132108B13EA300F7
:101460000030A40022080318220FA407A30A0319BE
:10147000A40A23088312031384008313831603131F
:10148000241883170130831203138000831603137B
:101490002108B13EA10022080318220F003EA2003D
:1014A0000230A1070318A20A210883120313840043
:1014B0008313831603132218831700308312031338
:1014C000800083160313A00A03302002031C072A9E
:1014D0000800B530FE000730FF0080308A110A1284
:1014E00094278A150A1283120313E1007F08E00093
:1014F000B730E2000730E300831203136008E40012
:101500006108E500FF30E007031CE103640865049F
:101510000319012B04306207E400E501E50D6308BF
:10152000E5076408FE006508FF0080308A110A1292
:1015300094278A150A1283120313E7007F08E60036
:101540006208FE006308FF0080308A110A129427A7
:101550008A150A1283120313E900E5007F08E800E8
:10156000E40002306207E400E501E50D6308E507E9
:101570006408FE006508FF0080308A110A12942773
:101580008A150A1283120313E500EB007F08E400BA
:10159000EA00831203136608EA006708EB00FF30D5
:1015A000E607031CE7036A086B040319FA2A6808B4
:1015B000FE006908FF0080308A110A1281278A150F
:1015C0000A1283120313EA006408831203138400CF
:1015D000831383120313651883176A088312031396
:1015E000800083120313E80A0319E90AE40A0319C5
:1015F000E50AC92A063083120313E2070318E30A37
:101600007C2A8A150A12642B080083160313DB0058
:101610007F08DC00DD010130DE005C08031D122BB9
:10162000FF30352B831603135C08DF00DF1B1D2BF7
:101630000310DC0D0310DE0D122B00308316031394
:101640005E040319322B5C085B02031C2B2B5E0823
:10165000DD075C08DB02031083160313DC0C0310A8
:10166000DE0C1D2B831603135D080800831603137D
:10167000E5007F08E6006608031D402BFF30632B62
:10168000013083160313E700831603136608E8008E
:10169000E81B4E2B0310E60DE70A442B003083169F
:1016A000031367040319602B66086502031C5A2B99
:1016B0006608E502031083160313E60CE7034E2BBE
:1016C00083160313650808008A150A12E4218A1597
:1016D0000A128A110A1205238A150A128A110A129D
:1016E000AC258A150A128A150A12A9238A150A122C
:1016F0008A150A129E238A150A128316031387136A
:101700008312031387130030831203171204031983
:10171000832B9201832B0800831603138116080084
:1017200083160313EC01831203130B1D9A2B8316EC
:101730000313EC0A831603136C08080083120313C7
:101740000B11D83081008B168B178316031381126F
:1017500008008316031301158114011481118116E9
:10176000080083160313E0007F08E100E20108305F
:10177000E30083160313601CBF2B6108E207831686
:1017800003136008E4000310640CE0000310610D13
:10179000E400E1006303E400E3006408031DB92BE7
:1017A000620808000A340034003400340034003485
:0E17B0000034003400340034003400340034BF
:02400E00323F3F
:00000001FF
